:08000000803102288731E92F4D
:10001000720871047004031908008030F2060800A9
:100020003034313432343034383432343834383493
:1000300032343834003420004A08CD004B08CE005A
:100040004C08CF0003104E0D4F0DD0005008D500C6
:100050005508031D32280030C7000030C8000030AA
:10006000C90008004708CD004808CE004908CF0065
:1000700003104E0D4F0DD0005008D6005608031D3A
:1000800048280030C7000030C8000030C900080010
:100090000030D2000030D3000030D4008930560741
:1000A000CD004D08D5024A08CD004B08CE004C08C3
:1000B000CF001030CF36CE0CCD0C890B5A284D080E
:1000C000D0005008D6004708CD004808CE004908A7
:1000D000CF001030CF36CE0CCD0C890B6A284D08DE
:1000E000D0005008D6068030CD004D08D605CB177D
:1000F000FF30CA05FF30CB050030CC05C817FF30F4
:10010000C705FF30C8050030C9051830CD004D08BF
:10011000D1000130D235D30DD40D890B8A2849087E
:100120004C02031D992848084B02031D99284708D3
:100130004A02031CA2284708CA024808CB3B4908C8
:10014000CC3B52140130CA35CB0DCC0D890BA32802
:100150000130D102031D89285208F0005308F10034
:100160005408F2005508CD004D08F3005608CE00A3
:100170004E08F4008E317A2670082000C7007108FE
:10018000C8007208C900080020002008A600210845
:10019000A7002208A8000310270D280DA900290890
:1001A000AA002A08031DDB280030A0000030A100AF
:1001B0000030A20008002308A6002408A700250894
:1001C000A8000310270D280DA9002908AF002F084B
:1001D000031DF1280030A0000030A1000030A20073
:1001E00008002F087B3EA6002608AA072008A600C4
:1001F0002108A7002208A8001030A836A70CA60CDA
:10020000890BFD282608A9002908AF002308A600AD
:100210002408A7002508A8001030A836A70CA60CB3
:10022000890B0D292608A9002908AF068030A600F1
:100230002608AF05A117A417FF30A305FF30A405BA
:100240000030A5050030AB000030AC000030AD0040
:100250000730A6002608AE00201C34292308AB076F
:100260002408AC3D2508AD3D0130A236A10CA00C00
:10027000890B35290130A335A40DA50D890B3B2928
:100280000130AE02031D2C290930A6002608AE005D
:10029000201C50292308AB072408AC3D2508AD3DA0
:1002A0000130A236A10CA00C890B51290130AD36CA
:1002B000AC0CAB0C890B57290130AE02031D482949
:1002C0002B08F0002C08F1002D08F2002A08A600E7
:1002D0002608F3002F08A7002708F4008E317A269D
:1002E00070082000A0007108A1007208A200080098
:1002F00020003008B6003108B7003208B8000310FB
:10030000370D380DB9003908BC003308B600340881
:10031000B7003508B8000310370D380DB90039089B
:10032000BB003C080319A0293B083C020318A7297D
:100330003C03FF3A3B07B60019303602031CA729DD
:100340003308B0003408B1003508B20008003B089B
:10035000031908003C083B020318B6293B03FF3A87
:100360003C07B60019303602031808000630B60004
:100370003608BA00B21BBA17B51B3A17B117FF30CF
:10038000B005FF30B1050030B205B417FF30B3053A
:10039000FF30B4050030B5053B083C020318F229D4
:1003A0000130B335B40DB50D890BD1290130BB0235
:1003B0003B083C060319ED290130BA023A08073917
:1003C0000319ED29D0290130B236B10CB00C890BDC
:1003D000E4290130B6003608BC073C083B06031987
:1003E000172AE3293C083B020318172A0130B035CD
:1003F000B10DB20D890BF7290130BC023B083C0658
:100400000319132A0130BA023A0807390319132ACB
:10041000F6290130B536B40CB30C890B0A2A013029
:10042000B6003608BB073C083B06031D092ABA1F65
:10043000292AFF30B006FF30B106FF30B206013086
:10044000B007003003180130B10700300318013045
:10045000B2073A1F3B2AFF30B306FF30B406FF3025
:10046000B5060130B307003003180130B40700307F
:1004700003180130B507BA013008B3073108B43D9D
:100480003208B53DB51F562AFF30B306FF30B4061B
:10049000FF30B5060130B307003003180130B40750
:1004A000003003180130B507BA01BA0A3308F0006A
:1004B0003408F1003508F2003C08B6003608F300B5
:1004C0003A08B7003708F4008E317A267008200009
:1004D000B0007108B1007208B200080000302100BD
:1004E000E4000030E5000030E6000030E700803036
:1004F000E8003F30E900DF01E0016008803AC30016
:1005000080304302031D862A64305F02031808000E
:1005100021003D082000A00021003E082000A1008D
:1005200021003F082000A20021006008F9005F08B8
:10053000F8008C315B24823178082000A300790810
:10054000A4007A08A5008031C42082312000200850
:100550002100C400200021082100C500200022083D
:100560002100C60040082000A00021004108200012
:10057000A100210042082000A20021004408200020
:10058000A300210045082000A40021004608200007
:10059000A5008031C4208231200020082100C7003E
:1005A000200021082100C800200022082100C900E5
:1005B00010302000A000C930A1004030A20021006E
:1005C00047082000A300210048082000A4002100C3
:1005D00049082000A5008031C42082312000200875
:1005E0002100CA00200021082100CB0020002208A1
:1005F0002100CC003A082000A00021003B08200088
:10060000A10021003C082000A20021006008F900A0
:100610005F08F8008C315B24823178082000A30049
:100620007908A4007A08A5008031C4208231200016
:1006300020082100CD00200021082100CE0020004C
:1006400022082100CF0040082000A000210041081E
:100650002000A100210042082000A20021004D0836
:100660002000A30021004E082000A40021004F0814
:100670002000A5008031C420823120002008210004
:10068000D000200021082100D100200022082100F4
:10069000D20010302000A000C930A1004030A200DC
:1006A000210050082000A300210051082000A400D0
:1006B000210052082000A5008031C4208231200092
:1006C00020082100D300200021082100D4002000B0
:1006D00022082100D5004A08AC004B08AD004C08A8
:1006E000AE008331E823823121002C08D6002D088A
:1006F000D7002E08D8005308AC005408AD005508A8
:10070000AE008331E823823121002C08D9002D0866
:10071000DA002E08DB0056082000B0002100570840
:100720002000B100210058082000B2002100590823
:100730002000B30021005A082000B40021005B080B
:100740002000B5008131782182312000300821005D
:10075000DC00200031082100DD00200032082100EB
:10076000DE006408F0006508F1006608F2005C082D
:10077000F3005D08F4005E08F5008D310A25823132
:100780000318C92B21005C08E4005D08E5005E0841
:10079000E60021005C08F0005D08F1005E08F20050
:1007A0006708F3006808F4006908F5008D310A2530
:1007B00082310318E22B21005C08E7005D08E800A5
:1007C0005E08E90001302100DF070030E03D7D2AAE
:1007D0002100B9012C08F0002D08F1002E08F200CC
:1007E0000030F3000030F4000030F5008D310A25B0
:1007F000833103180E2C21002C08F0002D08F10085
:100800002E08F20080310820833170082100AC00EE
:100810007108AD007208AE00B901B90AFA302000C3
:10082000A0002230A1003E30A20021002C082000B0
:10083000A30021002D082000A40021002E08200084
:10084000A5008031C4208331200020082100AC00A5
:10085000200021082100AD00200022082100AE0068
:100860002C082000ED0021002D082000EE002100C2
:100870002E082000EF008F316527833120006D089E
:100880002100A60020006E082100A70020006F08AC
:100890002100A8002C08A9002D08AA002E08AB00F2
:1008A0008C31A724833121002608AC002708AD0035
:1008B0002808AE0000302000A0008030A1004030A9
:1008C000A20021002C082000A30021002D082000F8
:1008D000A40021002E082000A5008031C42083310F
:1008E000200020082100AC00200021082100AD00DC
:1008F000200022082100AE000030F0000030F1009E
:100900004030F2002C08F3002D08F4002E08F5000A
:100910008D310A2583310318AD2C00302100A6004B
:100920000030A7004030A8002C08A9002D08AA001C
:100930002E08AB008C31A724833121002608AC009F
:100940002708AD002808AE003908031DA92C013086
:10095000AA2C0030AF002F08B9000030F000803022
:10096000F1003F30F20021002C08F3002D08F400C4
:100970002E08F5008D310A2583310318E62C00304E
:100980002000B0000030B1004030B20021002C083F
:10099000F0002D08F1002E08F2008031082083318C
:1009A00070082000B3007108B4007208B5008131EE
:1009B00078218331200030082100AC00200031086C
:1009C0002100AD00200032082100AE0021002C08DB
:1009D0002000A00021002D082000A10021002E08E9
:1009E0002000A20021002C082000A30021002D08D7
:1009F0002000A40021002E082000A5008031C42082
:100A00008331200020082100B600200021082100A9
:100A1000B700200022082100B80036082000BD00E1
:100A2000210037082000BE00210038082000BF0048
:100A30001230C0009030C1000330C2000030C3004B
:100A40008E311A26833120003D082100B00020009D
:100A50003E082100B10020003F082100B200043010
:100A60002000C2000030C3000330C0009030C1003D
:100A7000210036082000BD00210037082000BE00FC
:100A8000210038082000BF008E311A268331200053
:100A90003D08CA003E08CB003F08CC0021003008CA
:100AA0002000C700210031082000C80021003208C2
:100AB0002000C90080311B2083312000470821001D
:100AC000B300200048082100B4002000490821009C
:100AD000B50033082000A000210034082000A10048
:100AE000210035082000A20021002C082000A300CE
:100AF00021002D082000A40021002E082000A500C0
:100B00008031C4208331200020082100AC00200067
:100B100021082100AD00200022082100AE00390884
:100B2000031908002C08F0002D08F1002E08F2002F
:100B30008031082070082100AC007108AD007208F7
:100B4000AE00080072302100990023008C018E0154
:100B5000043021008C008E01043024008C008E01B2
:100B60002100950120008C018E0122009901803026
:100B70009800D2302A0091002200C001C101410832
:100B8000803A2100E10080306102031DCA2D0A3045
:100B9000220040020318BC2D00302200BD000030AE
:100BA000BE000030BF004008423E86000130870092
:100BB00001088D318225853170082200B500710849
:100BC000B6007208B7004008423E86000130870038
:100BD00001088D31C225853176082200B8007708DA
:100BE000B9007808BA0035082100BA00220036089A
:100BF0002100BB00220037082100BC002200380879
:100C00002100BD00220039082100BE0022003A0860
:100C10002100BF000030840090308500003FC000FC
:100C2000013FC100023FC20082316E2285312000A7
:100C30008C162200BB01BC013C08803A2100E10077
:100C400087306102031D272ED03022003B0203189B
:100C5000D12F22003D082000A00022003E082000E5
:100C6000A10022003F082000A20022003808200036
:100C7000A300220039082000A40022003A08200026
:100C8000A5008031C4208531200020082200A30067
:100C9000200021082200A400200022082200A50034
:100CA00010302000A000C930A1004030A200220076
:100CB00023082000A300220024082000A400220012
:100CC00025082000A5008031C4208531200020089F
:100CD0002200A600200021082200A70020002208F0
:100CE0002200A8003D082000A00022003E082000AD
:100CF000A10022003F082000A200220035082000A9
:100D0000A300220036082000A4002200370820009B
:100D1000A5008031C4208531200020082200A900D0
:100D2000200021082200AA00200022082200AB0097
:100D300010302000A000C930A1004030A2002200E5
:100D400029082000A30022002A082000A400220075
:100D50002B082000A5008031C42085312000200808
:100D60002200AC00200021082200AD002000220853
:100D70002200AE0026082100AC0022002708210036
:100D8000AD00220028082100AE008331E823853120
:100D900021002C082200AF0021002D082200B00005
:100DA00021002E082200B1002C082100AC002200F6
:100DB0002D082100AD0022002E082100AE00833155
:100DC000E823853121002C082200B20021002D08E3
:100DD0002200B30021002E082200B4002F082000BA
:100DE000B000220030082000B100220031082000AD
:100DF000B200220032082000B30022003308200095
:100E0000B400220034082000B500813178218531FA
:100E1000200030082200A000200031082200A1009C
:100E2000200032082200A20020082000A300220097
:100E300021082000A400220022082000A500003084
:100E4000A0007F30A1004330A2008031C420853152
:100E500020002008B3002108B4002208B5002100BA
:100E60006708F0006808F1006908F2008031082086
:100E7000853170082000B0007108B1007208B2001E
:100E800081317821853120003008CA003108CB003B
:100E90003208CC0021006708F0006808F1006908FA
:100EA000F20080310820853170082000B3007108FD
:100EB000B4007208B500210064082000B0002100D1
:100EC00065082000B100210066082000B2008131D1
:100ED0007821853120003008C7003108C800320869
:100EE000C90080311B20853120004708D700480801
:100EF000D8004908D9008E31DE26853120005708F8
:100F000022009900F9302100E1000000E10B852F5B
:100F1000003200000030840090308500003F200047
:100F2000CA00013FCB00023FCC000030C7007A303E
:100F3000C8004430C90080311B208531200047089B
:100F4000B0004808B1004908B20022003D08200066
:100F5000B30022003E082000B40022003F08200019
:100F6000B500813178218531200030082200BD0094
:100F7000200031082200BE00200032082200BF00FD
:100F80000130BB070030BC3D3C08803A2100E10045
:100F900087306102031DCF2FD03022003B02031C9B
:100FA000292E20008C12220099010B302100E30031
:100FB0002630E2006630E100E10BDC2FE20BDC2F93
:100FC000E30BDC2F003201302200C0070030C13DAE
:100FD000BF2D103084008030850042308600013003
:100FE00087000B308C313A242100E401E501E60151
:100FF000E701E801E901EA01EB0120008531A22DBA
:10187400FE0012001E00FE0B3B2C0034F401F501A7
:10188400701C482C7208F4077308F53D0130F235DA
:10189400F30D890B492C0130F136F00C890B4E2CD9
:1018A40070087104031D422C7508F1007408F000DF
:1018B4000800FD01F91F652CF809F909F80A031954
:1018C400F90AFD01FD0A7808F0007908F100F20137
:1018D4008E30FB007B08F3007D08FC007C08F400DC
:1018E4008E317A267008F8007108F9007208FA003F
:1018F4000800700871040319A22CF501F50AF11B04
:101904008D2C0130F035F10D890B842C0130F4005D
:101914007408F507812C71087302031D932C700859
:101924007202031C992C7008F2027108F33B013017
:10193400F136F00C890B9A2C0130F502031D8D2C25
:101944007308F1007208F000080021002808270439
:1019540026040319AF2C8030A80629082000B00003
:1019640021002A082000B10021002B082000B20029
:10197400210026082000B300210027082000B4001D
:10198400210028082000B50081317821200030088A
:101994002100A600200031082100A7002000320801
:1019A4002100A8000800720871047004031DE12CD2
:1019B4007308860087010030C03FC13F08007208E9
:1019C4007F39F400F501F435F50D730886008701BD
:1019D4007408C03F7508C13F710D710D0139F400E1
:1019E400F501730886008701740881044131750884
:1019F4008104730886008701823081074131FF30FA
:101A0400813D7F31720880393F38F200F1130800BC
:101A1400F21F202D7009F6007109F7007209F80011
:101A2400F60A0319F70A0319F80A00307607F000DA
:101A34000030773DF1008030783DF200F51F362DFF
:101A44007309F6007409F7007509F800F60A03191A
:101A5400F70A0319F80A00307607F3000030773DDF
:101A6400F4008030783DF5008030F2068030F506D1
:101A740075087202031D080074087102031D080032
:101A84007308700208002000EC018E30E900690838
:101A9400EB00E81F5A2DE509E609E709E809E50A1C
:101AA4000319E60A0319E70A0319E80AEC01EC0A28
:101AB400FF30680503196A2D0130E836E70CE60C9F
:101AC400E50C890B5F2D0130E9006908EB075A2DFD
:101AD4006508F0006608F1006708F2006B08E90089
:101AE4006908F3006C08EA006A08F4008E317A266B
:101AF40070082000E5007108E6007208E70008009D
:101B0400F40031307402031C922D34307402031833
:101B1400922D4030F0002E30F1004430F2000800E5
:101B240034307402031CA12D373074020318A12D24
:101B34008030F0004030F1004430F20008003730CB
:101B44007402031CB02D3A3074020318B02D003017
:101B5400F0005530F1004430F200080030307406D3
:101B6400031DBB2D4030F0006B30F1004430F20017
:101B740008004030F0009C30F1004530F2000800CD
:101B8400FA000330F0000030F1007A08D03EF20091
:101B9400FF3003180030F3008C317B248D31700347
:101BA4007104031DDC2D2030F6009730F70044301B
:101BB400F800080030307A060319F32D0330F000E2
:101BC4000030F1007A08D03EF200FF3003180030F4
:101BD400F3008C317B248D31023070067104031DB7
:101BE400FA2D0030F600A730F7004430F800080062
:101BF4000330F0000030F1007A08D03EF200FF30EC
:101C040003180030F3008C317B248D31700871048B
:101C1400031D132EE030F600B430F7004430F80012
:101C240008004030F6001C30F7004630F800080089
:101C340020004308F1004208F0000330F2000030B5
:101C4400F3008C3140248E3120004008700784005A
:101C54004108713D8500003FC400013FC500023FBB
:101C6400C600420843040319732EFF30C207FF3035
:101C7400C33D4308F1004208F0000330F200003095
:101C8400F3008C3140248E3120004008700784001A
:101C94004108713D8500003FB000013FB100023FA3
:101CA400B2004408A0004508A1004608A2003D086F
:101CB400A3003E08A4003F08A5008031C4208E3153
:101CC40020002008B3002108B4002208B5008131A7
:101CD40078218E3120003008C4003108C500320854
:101CE400322E4408BD004508BE004608BF00080067
:101CF40073080319822E720871047004031D932E55
:101D04000030F0000030F1000030F2000800013033
:101D1400F5007508F3070130F236F10CF00C890B6D
:101D24008E2EFE3072050319AC2E892E0130F5007B
:101D34007508F3070130F007003003180130F1078C
:101D4400003003180130F2070130F236F10CF00CC8
:101D5400890BA72EFF3072050319B92E982E013076
:101D6400F3020130F035F10DF20D890BB42EF11BA5
:101D7400BF2E023073020318B12E7318C72EFF3022
:101D8400F0057F30F105FF30F2050310F30C730802
:101D9400F500F601F7011030F535F60DF70D890B56
:101DA400CE2E7508F0047608F1047708F20474085E
:101DB40003190800F217080020005708DB00580830
:101DC400DC005908DD0003105C0D5D0DDE005E08CB
:101DD400E4006408031DF72E0030DA000030D90057
:101DE4000030D8000030D70008005708DB0058083E
:101DF400DC005908DD001730DD36DC0CDB0C890B08
:101E0400FE2E5B08DE005E08DF00D817FF30D70522
:101E1400FF30D8050030D9055708E0005808E10024
:101E24005908E200E3018E30E402E41F352F640810
:101E3400803A8F3E0318272F0030DA000030D90093
:101E44000030D8000030D70008000130E336E20C3F
:101E5400E10CE00C890B282F0130DB005B08E40760
:101E640003194E2F272F18306402031C4B2F003008
:101E7400DA000030D9000030D8000030D700080064
:101E84000130E035E10DE20DE30D890B432F013004
:101E9400E4026408031D422F5F0803195C2FE00964
:101EA400E109E209E309E00A0319E10A0319E20A74
:101EB4000319E30A6308DA006208D9006108D8004C
:101EC4006008D700080020006D08F0006E08F100DB
:101ED4006F08F200A4302100A0002008F3008C3128
:101EE400D5248F312100A51F992F20006D08F00003
:101EF4006E08F1006F08F2000030F3000030F400C7
:101F04000030F5008D310A258F310318912F0030F0
:101F14002000ED008030EE00BF30EF0008000030FC
:101F24002000ED000030EE000030EF00080000302B
:101F3400210025021530031924020318080020008B
:101F44006D08D7006E08D8006F08D9008E31DE26E0
:101F54008F3120005A08E8005908E7005808E600C5
:101F64005708E5008D3145258F3120006508210093
:101F7400A100200066082100A200200067082100BB
:101F8400A30020006D08F0006E08F1006F08F20055
:101F940021002108F3002208F4002308F5008D3104
:101FA4000A258F310318F32F00302000B000803051
:101FB400B100BF30B200210021082000B30021008D
:101FC40022082000B400210023082000B50081313C
:101FD400782120003008ED003108EE003208EF00CF
:101FE4000800210021082000ED0021002208200023
:101FF400EE00210023082000EF0008000034003424
:102004003F34F4344A34483495349534C734C134B5
:10201400DC344534DC346D34C334B33433344034C9
:102024003434013448349D34B03445340034DA3423
:082034004234003480343F34D3
:020000040001F9
:04000E00E4CFFFDA62
:00000001FF
